{
	"smartcontract.sol": {
		"SimpleBank": {
			"abi": [
				{
					"anonymous": false,
					"inputs": [
						{
							"indexed": true,
							"internalType": "address",
							"name": "accountAddress",
							"type": "address"
						},
						{
							"indexed": false,
							"internalType": "uint256",
							"name": "amount",
							"type": "uint256"
						}
					],
					"name": "DepositMade",
					"type": "event"
				},
				{
					"anonymous": false,
					"inputs": [
						{
							"indexed": true,
							"internalType": "address",
							"name": "accountAddress",
							"type": "address"
						},
						{
							"indexed": false,
							"internalType": "uint256",
							"name": "amount",
							"type": "uint256"
						}
					],
					"name": "WithdrawalMade",
					"type": "event"
				},
				{
					"inputs": [],
					"name": "checkBalance",
					"outputs": [
						{
							"internalType": "uint256",
							"name": "",
							"type": "uint256"
						}
					],
					"stateMutability": "view",
					"type": "function"
				},
				{
					"inputs": [],
					"name": "deposit",
					"outputs": [],
					"stateMutability": "payable",
					"type": "function"
				},
				{
					"inputs": [
						{
							"internalType": "uint256",
							"name": "withdrawAmount",
							"type": "uint256"
						}
					],
					"name": "withdraw",
					"outputs": [],
					"stateMutability": "nonpayable",
					"type": "function"
				}
			],
			"devdoc": {
				"kind": "dev",
				"methods": {},
				"version": 1
			},
			"evm": {
				"assembly": "    /* \"smartcontract.sol\":60:914  contract SimpleBank {... */\n  mstore(0x40, 0x80)\n  callvalue\n  dup1\n  iszero\n  tag_1\n  jumpi\n  0x00\n  dup1\n  revert\ntag_1:\n  pop\n  dataSize(sub_0)\n  dup1\n  dataOffset(sub_0)\n  0x00\n  codecopy\n  0x00\n  return\nstop\n\nsub_0: assembly {\n        /* \"smartcontract.sol\":60:914  contract SimpleBank {... */\n      mstore(0x40, 0x80)\n      jumpi(tag_1, lt(calldatasize, 0x04))\n      shr(0xe0, calldataload(0x00))\n      dup1\n      0x2e1a7d4d\n      eq\n      tag_2\n      jumpi\n      dup1\n      0xc71daccb\n      eq\n      tag_3\n      jumpi\n      dup1\n      0xd0e30db0\n      eq\n      tag_4\n      jumpi\n    tag_1:\n      0x00\n      dup1\n      revert\n        /* \"smartcontract.sol\":502:803  function withdraw(uint256 withdrawAmount) public {... */\n    tag_2:\n      callvalue\n      dup1\n      iszero\n      tag_5\n      jumpi\n      0x00\n      dup1\n      revert\n    tag_5:\n      pop\n      tag_6\n      0x04\n      dup1\n      calldatasize\n      sub\n      dup2\n      add\n      swap1\n      tag_7\n      swap2\n      swap1\n      tag_8\n      jump\t// in\n    tag_7:\n      tag_9\n      jump\t// in\n    tag_6:\n      stop\n        /* \"smartcontract.sol\":811:911  function checkBalance() public view returns (uint256) {... */\n    tag_3:\n      callvalue\n      dup1\n      iszero\n      tag_10\n      jumpi\n      0x00\n      dup1\n      revert\n    tag_10:\n      pop\n      tag_11\n      tag_12\n      jump\t// in\n    tag_11:\n      mload(0x40)\n      tag_13\n      swap2\n      swap1\n      tag_14\n      jump\t// in\n    tag_13:\n      mload(0x40)\n      dup1\n      swap2\n      sub\n      swap1\n      return\n        /* \"smartcontract.sol\":281:494  function deposit() public payable {... */\n    tag_4:\n      tag_15\n      tag_16\n      jump\t// in\n    tag_15:\n      stop\n        /* \"smartcontract.sol\":502:803  function withdraw(uint256 withdrawAmount) public {... */\n    tag_9:\n        /* \"smartcontract.sol\":594:608  withdrawAmount */\n      dup1\n        /* \"smartcontract.sol\":570:578  balances */\n      0x00\n        /* \"smartcontract.sol\":570:590  balances[msg.sender] */\n      dup1\n        /* \"smartcontract.sol\":579:589  msg.sender */\n      caller\n        /* \"smartcontract.sol\":570:590  balances[msg.sender] */\n      0xffffffffffffffffffffffffffffffffffffffff\n      and\n      0xffffffffffffffffffffffffffffffffffffffff\n      and\n      dup2\n      mstore\n      0x20\n      add\n      swap1\n      dup2\n      mstore\n      0x20\n      add\n      0x00\n      keccak256\n      sload\n        /* \"smartcontract.sol\":570:608  balances[msg.sender] >= withdrawAmount */\n      lt\n      iszero\n        /* \"smartcontract.sol\":562:633  require(balances[msg.sender] >= withdrawAmount, \"Insufficient balance\") */\n      tag_18\n      jumpi\n      mload(0x40)\n      0x08c379a000000000000000000000000000000000000000000000000000000000\n      dup2\n      mstore\n      0x04\n      add\n      tag_19\n      swap1\n      tag_20\n      jump\t// in\n    tag_19:\n      mload(0x40)\n      dup1\n      swap2\n      sub\n      swap1\n      revert\n    tag_18:\n        /* \"smartcontract.sol\":668:682  withdrawAmount */\n      dup1\n        /* \"smartcontract.sol\":644:652  balances */\n      0x00\n        /* \"smartcontract.sol\":644:664  balances[msg.sender] */\n      dup1\n        /* \"smartcontract.sol\":653:663  msg.sender */\n      caller\n        /* \"smartcontract.sol\":644:664  balances[msg.sender] */\n      0xffffffffffffffffffffffffffffffffffffffff\n      and\n      0xffffffffffffffffffffffffffffffffffffffff\n      and\n      dup2\n      mstore\n      0x20\n      add\n      swap1\n      dup2\n      mstore\n      0x20\n      add\n      0x00\n      keccak256\n      0x00\n        /* \"smartcontract.sol\":644:682  balances[msg.sender] -= withdrawAmount */\n      dup3\n      dup3\n      sload\n      tag_21\n      swap2\n      swap1\n      tag_22\n      jump\t// in\n    tag_21:\n      swap3\n      pop\n      pop\n      dup2\n      swap1\n      sstore\n      pop\n        /* \"smartcontract.sol\":701:711  msg.sender */\n      caller\n        /* \"smartcontract.sol\":693:721  payable(msg.sender).transfer */\n      0xffffffffffffffffffffffffffffffffffffffff\n      and\n        /* \"smartcontract.sol\":693:737  payable(msg.sender).transfer(withdrawAmount) */\n      0x08fc\n        /* \"smartcontract.sol\":722:736  withdrawAmount */\n      dup3\n        /* \"smartcontract.sol\":693:737  payable(msg.sender).transfer(withdrawAmount) */\n      swap1\n      dup2\n      iszero\n      mul\n      swap1\n      mload(0x40)\n      0x00\n      mload(0x40)\n      dup1\n      dup4\n      sub\n      dup2\n      dup6\n      dup9\n      dup9\n      call\n      swap4\n      pop\n      pop\n      pop\n      pop\n      iszero\n      dup1\n      iszero\n      tag_24\n      jumpi\n      returndatasize\n      0x00\n      dup1\n      returndatacopy\n      revert(0x00, returndatasize)\n    tag_24:\n      pop\n        /* \"smartcontract.sol\":768:778  msg.sender */\n      caller\n        /* \"smartcontract.sol\":753:795  WithdrawalMade(msg.sender, withdrawAmount) */\n      0xffffffffffffffffffffffffffffffffffffffff\n      and\n      0xbc158bb64f05d6383aea69bbb0b20c1bbf4b7a18f63359c5649b7c39e29d3884\n        /* \"smartcontract.sol\":780:794  withdrawAmount */\n      dup3\n        /* \"smartcontract.sol\":753:795  WithdrawalMade(msg.sender, withdrawAmount) */\n      mload(0x40)\n      tag_25\n      swap2\n      swap1\n      tag_14\n      jump\t// in\n    tag_25:\n      mload(0x40)\n      dup1\n      swap2\n      sub\n      swap1\n      log2\n        /* \"smartcontract.sol\":502:803  function withdraw(uint256 withdrawAmount) public {... */\n      pop\n      jump\t// out\n        /* \"smartcontract.sol\":811:911  function checkBalance() public view returns (uint256) {... */\n    tag_12:\n        /* \"smartcontract.sol\":856:863  uint256 */\n      0x00\n        /* \"smartcontract.sol\":883:891  balances */\n      dup1\n        /* \"smartcontract.sol\":883:903  balances[msg.sender] */\n      0x00\n        /* \"smartcontract.sol\":892:902  msg.sender */\n      caller\n        /* \"smartcontract.sol\":883:903  balances[msg.sender] */\n      0xffffffffffffffffffffffffffffffffffffffff\n      and\n      0xffffffffffffffffffffffffffffffffffffffff\n      and\n      dup2\n      mstore\n      0x20\n      add\n      swap1\n      dup2\n      mstore\n      0x20\n      add\n      0x00\n      keccak256\n      sload\n        /* \"smartcontract.sol\":876:903  return balances[msg.sender] */\n      swap1\n      pop\n        /* \"smartcontract.sol\":811:911  function checkBalance() public view returns (uint256) {... */\n      swap1\n      jump\t// out\n        /* \"smartcontract.sol\":281:494  function deposit() public payable {... */\n    tag_16:\n        /* \"smartcontract.sol\":346:347  0 */\n      0x00\n        /* \"smartcontract.sol\":334:343  msg.value */\n      callvalue\n        /* \"smartcontract.sol\":334:347  msg.value > 0 */\n      gt\n        /* \"smartcontract.sol\":326:392  require(msg.value > 0, \"Deposit amount must be greater than zero\") */\n      tag_28\n      jumpi\n      mload(0x40)\n      0x08c379a000000000000000000000000000000000000000000000000000000000\n      dup2\n      mstore\n      0x04\n      add\n      tag_29\n      swap1\n      tag_30\n      jump\t// in\n    tag_29:\n      mload(0x40)\n      dup1\n      swap2\n      sub\n      swap1\n      revert\n    tag_28:\n        /* \"smartcontract.sol\":427:436  msg.value */\n      callvalue\n        /* \"smartcontract.sol\":403:411  balances */\n      0x00\n        /* \"smartcontract.sol\":403:423  balances[msg.sender] */\n      dup1\n        /* \"smartcontract.sol\":412:422  msg.sender */\n      caller\n        /* \"smartcontract.sol\":403:423  balances[msg.sender] */\n      0xffffffffffffffffffffffffffffffffffffffff\n      and\n      0xffffffffffffffffffffffffffffffffffffffff\n      and\n      dup2\n      mstore\n      0x20\n      add\n      swap1\n      dup2\n      mstore\n      0x20\n      add\n      0x00\n      keccak256\n      0x00\n        /* \"smartcontract.sol\":403:436  balances[msg.sender] += msg.value */\n      dup3\n      dup3\n      sload\n      tag_31\n      swap2\n      swap1\n      tag_32\n      jump\t// in\n    tag_31:\n      swap3\n      pop\n      pop\n      dup2\n      swap1\n      sstore\n      pop\n        /* \"smartcontract.sol\":464:474  msg.sender */\n      caller\n        /* \"smartcontract.sol\":452:486  DepositMade(msg.sender, msg.value) */\n      0xffffffffffffffffffffffffffffffffffffffff\n      and\n      0xd15c9547ea5c06670c0010ce19bc32d54682a4b3801ece7f3ab0c3f17106b4bb\n        /* \"smartcontract.sol\":476:485  msg.value */\n      callvalue\n        /* \"smartcontract.sol\":452:486  DepositMade(msg.sender, msg.value) */\n      mload(0x40)\n      tag_33\n      swap2\n      swap1\n      tag_14\n      jump\t// in\n    tag_33:\n      mload(0x40)\n      dup1\n      swap2\n      sub\n      swap1\n      log2\n        /* \"smartcontract.sol\":281:494  function deposit() public payable {... */\n      jump\t// out\n        /* \"#utility.yul\":88:205   */\n    tag_35:\n        /* \"#utility.yul\":197:198   */\n      0x00\n        /* \"#utility.yul\":194:195   */\n      dup1\n        /* \"#utility.yul\":187:199   */\n      revert\n        /* \"#utility.yul\":334:411   */\n    tag_37:\n        /* \"#utility.yul\":371:378   */\n      0x00\n        /* \"#utility.yul\":400:405   */\n      dup2\n        /* \"#utility.yul\":389:405   */\n      swap1\n      pop\n        /* \"#utility.yul\":334:411   */\n      swap2\n      swap1\n      pop\n      jump\t// out\n        /* \"#utility.yul\":417:539   */\n    tag_38:\n        /* \"#utility.yul\":490:514   */\n      tag_53\n        /* \"#utility.yul\":508:513   */\n      dup2\n        /* \"#utility.yul\":490:514   */\n      tag_37\n      jump\t// in\n    tag_53:\n        /* \"#utility.yul\":483:488   */\n      dup2\n        /* \"#utility.yul\":480:515   */\n      eq\n        /* \"#utility.yul\":470:533   */\n      tag_54\n      jumpi\n        /* \"#utility.yul\":529:530   */\n      0x00\n        /* \"#utility.yul\":526:527   */\n      dup1\n        /* \"#utility.yul\":519:531   */\n      revert\n        /* \"#utility.yul\":470:533   */\n    tag_54:\n        /* \"#utility.yul\":417:539   */\n      pop\n      jump\t// out\n        /* \"#utility.yul\":545:684   */\n    tag_39:\n        /* \"#utility.yul\":591:596   */\n      0x00\n        /* \"#utility.yul\":629:635   */\n      dup2\n        /* \"#utility.yul\":616:636   */\n      calldataload\n        /* \"#utility.yul\":607:636   */\n      swap1\n      pop\n        /* \"#utility.yul\":645:678   */\n      tag_56\n        /* \"#utility.yul\":672:677   */\n      dup2\n        /* \"#utility.yul\":645:678   */\n      tag_38\n      jump\t// in\n    tag_56:\n        /* \"#utility.yul\":545:684   */\n      swap3\n      swap2\n      pop\n      pop\n      jump\t// out\n        /* \"#utility.yul\":690:1019   */\n    tag_8:\n        /* \"#utility.yul\":749:755   */\n      0x00\n        /* \"#utility.yul\":798:800   */\n      0x20\n        /* \"#utility.yul\":786:795   */\n      dup3\n        /* \"#utility.yul\":777:784   */\n      dup5\n        /* \"#utility.yul\":773:796   */\n      sub\n        /* \"#utility.yul\":769:801   */\n      slt\n        /* \"#utility.yul\":766:885   */\n      iszero\n      tag_58\n      jumpi\n        /* \"#utility.yul\":804:883   */\n      tag_59\n      tag_35\n      jump\t// in\n    tag_59:\n        /* \"#utility.yul\":766:885   */\n    tag_58:\n        /* \"#utility.yul\":924:925   */\n      0x00\n        /* \"#utility.yul\":949:1002   */\n      tag_60\n        /* \"#utility.yul\":994:1001   */\n      dup5\n        /* \"#utility.yul\":985:991   */\n      dup3\n        /* \"#utility.yul\":974:983   */\n      dup6\n        /* \"#utility.yul\":970:992   */\n      add\n        /* \"#utility.yul\":949:1002   */\n      tag_39\n      jump\t// in\n    tag_60:\n        /* \"#utility.yul\":939:1002   */\n      swap2\n      pop\n        /* \"#utility.yul\":895:1012   */\n      pop\n        /* \"#utility.yul\":690:1019   */\n      swap3\n      swap2\n      pop\n      pop\n      jump\t// out\n        /* \"#utility.yul\":1025:1143   */\n    tag_40:\n        /* \"#utility.yul\":1112:1136   */\n      tag_62\n        /* \"#utility.yul\":1130:1135   */\n      dup2\n        /* \"#utility.yul\":1112:1136   */\n      tag_37\n      jump\t// in\n    tag_62:\n        /* \"#utility.yul\":1107:1110   */\n      dup3\n        /* \"#utility.yul\":1100:1137   */\n      mstore\n        /* \"#utility.yul\":1025:1143   */\n      pop\n      pop\n      jump\t// out\n        /* \"#utility.yul\":1149:1371   */\n    tag_14:\n        /* \"#utility.yul\":1242:1246   */\n      0x00\n        /* \"#utility.yul\":1280:1282   */\n      0x20\n        /* \"#utility.yul\":1269:1278   */\n      dup3\n        /* \"#utility.yul\":1265:1283   */\n      add\n        /* \"#utility.yul\":1257:1283   */\n      swap1\n      pop\n        /* \"#utility.yul\":1293:1364   */\n      tag_64\n        /* \"#utility.yul\":1361:1362   */\n      0x00\n        /* \"#utility.yul\":1350:1359   */\n      dup4\n        /* \"#utility.yul\":1346:1363   */\n      add\n        /* \"#utility.yul\":1337:1343   */\n      dup5\n        /* \"#utility.yul\":1293:1364   */\n      tag_40\n      jump\t// in\n    tag_64:\n        /* \"#utility.yul\":1149:1371   */\n      swap3\n      swap2\n      pop\n      pop\n      jump\t// out\n        /* \"#utility.yul\":1377:1546   */\n    tag_41:\n        /* \"#utility.yul\":1461:1472   */\n      0x00\n        /* \"#utility.yul\":1495:1501   */\n      dup3\n        /* \"#utility.yul\":1490:1493   */\n      dup3\n        /* \"#utility.yul\":1483:1502   */\n      mstore\n        /* \"#utility.yul\":1535:1539   */\n      0x20\n        /* \"#utility.yul\":1530:1533   */\n      dup3\n        /* \"#utility.yul\":1526:1540   */\n      add\n        /* \"#utility.yul\":1511:1540   */\n      swap1\n      pop\n        /* \"#utility.yul\":1377:1546   */\n      swap3\n      swap2\n      pop\n      pop\n      jump\t// out\n        /* \"#utility.yul\":1552:1722   */\n    tag_42:\n        /* \"#utility.yul\":1692:1714   */\n      0x496e73756666696369656e742062616c616e6365000000000000000000000000\n        /* \"#utility.yul\":1688:1689   */\n      0x00\n        /* \"#utility.yul\":1680:1686   */\n      dup3\n        /* \"#utility.yul\":1676:1690   */\n      add\n        /* \"#utility.yul\":1669:1715   */\n      mstore\n        /* \"#utility.yul\":1552:1722   */\n      pop\n      jump\t// out\n        /* \"#utility.yul\":1728:2094   */\n    tag_43:\n        /* \"#utility.yul\":1870:1873   */\n      0x00\n        /* \"#utility.yul\":1891:1958   */\n      tag_68\n        /* \"#utility.yul\":1955:1957   */\n      0x14\n        /* \"#utility.yul\":1950:1953   */\n      dup4\n        /* \"#utility.yul\":1891:1958   */\n      tag_41\n      jump\t// in\n    tag_68:\n        /* \"#utility.yul\":1884:1958   */\n      swap2\n      pop\n        /* \"#utility.yul\":1967:2060   */\n      tag_69\n        /* \"#utility.yul\":2056:2059   */\n      dup3\n        /* \"#utility.yul\":1967:2060   */\n      tag_42\n      jump\t// in\n    tag_69:\n        /* \"#utility.yul\":2085:2087   */\n      0x20\n        /* \"#utility.yul\":2080:2083   */\n      dup3\n        /* \"#utility.yul\":2076:2088   */\n      add\n        /* \"#utility.yul\":2069:2088   */\n      swap1\n      pop\n        /* \"#utility.yul\":1728:2094   */\n      swap2\n      swap1\n      pop\n      jump\t// out\n        /* \"#utility.yul\":2100:2519   */\n    tag_20:\n        /* \"#utility.yul\":2266:2270   */\n      0x00\n        /* \"#utility.yul\":2304:2306   */\n      0x20\n        /* \"#utility.yul\":2293:2302   */\n      dup3\n        /* \"#utility.yul\":2289:2307   */\n      add\n        /* \"#utility.yul\":2281:2307   */\n      swap1\n      pop\n        /* \"#utility.yul\":2353:2362   */\n      dup2\n        /* \"#utility.yul\":2347:2351   */\n      dup2\n        /* \"#utility.yul\":2343:2363   */\n      sub\n        /* \"#utility.yul\":2339:2340   */\n      0x00\n        /* \"#utility.yul\":2328:2337   */\n      dup4\n        /* \"#utility.yul\":2324:2341   */\n      add\n        /* \"#utility.yul\":2317:2364   */\n      mstore\n        /* \"#utility.yul\":2381:2512   */\n      tag_71\n        /* \"#utility.yul\":2507:2511   */\n      dup2\n        /* \"#utility.yul\":2381:2512   */\n      tag_43\n      jump\t// in\n    tag_71:\n        /* \"#utility.yul\":2373:2512   */\n      swap1\n      pop\n        /* \"#utility.yul\":2100:2519   */\n      swap2\n      swap1\n      pop\n      jump\t// out\n        /* \"#utility.yul\":2525:2705   */\n    tag_44:\n        /* \"#utility.yul\":2573:2650   */\n      0x4e487b7100000000000000000000000000000000000000000000000000000000\n        /* \"#utility.yul\":2570:2571   */\n      0x00\n        /* \"#utility.yul\":2563:2651   */\n      mstore\n        /* \"#utility.yul\":2670:2674   */\n      0x11\n        /* \"#utility.yul\":2667:2668   */\n      0x04\n        /* \"#utility.yul\":2660:2675   */\n      mstore\n        /* \"#utility.yul\":2694:2698   */\n      0x24\n        /* \"#utility.yul\":2691:2692   */\n      0x00\n        /* \"#utility.yul\":2684:2699   */\n      revert\n        /* \"#utility.yul\":2711:2905   */\n    tag_22:\n        /* \"#utility.yul\":2751:2755   */\n      0x00\n        /* \"#utility.yul\":2771:2791   */\n      tag_74\n        /* \"#utility.yul\":2789:2790   */\n      dup3\n        /* \"#utility.yul\":2771:2791   */\n      tag_37\n      jump\t// in\n    tag_74:\n        /* \"#utility.yul\":2766:2791   */\n      swap2\n      pop\n        /* \"#utility.yul\":2805:2825   */\n      tag_75\n        /* \"#utility.yul\":2823:2824   */\n      dup4\n        /* \"#utility.yul\":2805:2825   */\n      tag_37\n      jump\t// in\n    tag_75:\n        /* \"#utility.yul\":2800:2825   */\n      swap3\n      pop\n        /* \"#utility.yul\":2849:2850   */\n      dup3\n        /* \"#utility.yul\":2846:2847   */\n      dup3\n        /* \"#utility.yul\":2842:2851   */\n      sub\n        /* \"#utility.yul\":2834:2851   */\n      swap1\n      pop\n        /* \"#utility.yul\":2873:2874   */\n      dup2\n        /* \"#utility.yul\":2867:2871   */\n      dup2\n        /* \"#utility.yul\":2864:2875   */\n      gt\n        /* \"#utility.yul\":2861:2898   */\n      iszero\n      tag_76\n      jumpi\n        /* \"#utility.yul\":2878:2896   */\n      tag_77\n      tag_44\n      jump\t// in\n    tag_77:\n        /* \"#utility.yul\":2861:2898   */\n    tag_76:\n        /* \"#utility.yul\":2711:2905   */\n      swap3\n      swap2\n      pop\n      pop\n      jump\t// out\n        /* \"#utility.yul\":2911:3138   */\n    tag_45:\n        /* \"#utility.yul\":3051:3085   */\n      0x4465706f73697420616d6f756e74206d75737420626520677265617465722074\n        /* \"#utility.yul\":3047:3048   */\n      0x00\n        /* \"#utility.yul\":3039:3045   */\n      dup3\n        /* \"#utility.yul\":3035:3049   */\n      add\n        /* \"#utility.yul\":3028:3086   */\n      mstore\n        /* \"#utility.yul\":3120:3130   */\n      0x68616e207a65726f000000000000000000000000000000000000000000000000\n        /* \"#utility.yul\":3115:3117   */\n      0x20\n        /* \"#utility.yul\":3107:3113   */\n      dup3\n        /* \"#utility.yul\":3103:3118   */\n      add\n        /* \"#utility.yul\":3096:3131   */\n      mstore\n        /* \"#utility.yul\":2911:3138   */\n      pop\n      jump\t// out\n        /* \"#utility.yul\":3144:3510   */\n    tag_46:\n        /* \"#utility.yul\":3286:3289   */\n      0x00\n        /* \"#utility.yul\":3307:3374   */\n      tag_80\n        /* \"#utility.yul\":3371:3373   */\n      0x28\n        /* \"#utility.yul\":3366:3369   */\n      dup4\n        /* \"#utility.yul\":3307:3374   */\n      tag_41\n      jump\t// in\n    tag_80:\n        /* \"#utility.yul\":3300:3374   */\n      swap2\n      pop\n        /* \"#utility.yul\":3383:3476   */\n      tag_81\n        /* \"#utility.yul\":3472:3475   */\n      dup3\n        /* \"#utility.yul\":3383:3476   */\n      tag_45\n      jump\t// in\n    tag_81:\n        /* \"#utility.yul\":3501:3503   */\n      0x40\n        /* \"#utility.yul\":3496:3499   */\n      dup3\n        /* \"#utility.yul\":3492:3504   */\n      add\n        /* \"#utility.yul\":3485:3504   */\n      swap1\n      pop\n        /* \"#utility.yul\":3144:3510   */\n      swap2\n      swap1\n      pop\n      jump\t// out\n        /* \"#utility.yul\":3516:3935   */\n    tag_30:\n        /* \"#utility.yul\":3682:3686   */\n      0x00\n        /* \"#utility.yul\":3720:3722   */\n      0x20\n        /* \"#utility.yul\":3709:3718   */\n      dup3\n        /* \"#utility.yul\":3705:3723   */\n      add\n        /* \"#utility.yul\":3697:3723   */\n      swap1\n      pop\n        /* \"#utility.yul\":3769:3778   */\n      dup2\n        /* \"#utility.yul\":3763:3767   */\n      dup2\n        /* \"#utility.yul\":3759:3779   */\n      sub\n        /* \"#utility.yul\":3755:3756   */\n      0x00\n        /* \"#utility.yul\":3744:3753   */\n      dup4\n        /* \"#utility.yul\":3740:3757   */\n      add\n        /* \"#utility.yul\":3733:3780   */\n      mstore\n        /* \"#utility.yul\":3797:3928   */\n      tag_83\n        /* \"#utility.yul\":3923:3927   */\n      dup2\n        /* \"#utility.yul\":3797:3928   */\n      tag_46\n      jump\t// in\n    tag_83:\n        /* \"#utility.yul\":3789:3928   */\n      swap1\n      pop\n        /* \"#utility.yul\":3516:3935   */\n      swap2\n      swap1\n      pop\n      jump\t// out\n        /* \"#utility.yul\":3941:4132   */\n    tag_32:\n        /* \"#utility.yul\":3981:3984   */\n      0x00\n        /* \"#utility.yul\":4000:4020   */\n      tag_85\n        /* \"#utility.yul\":4018:4019   */\n      dup3\n        /* \"#utility.yul\":4000:4020   */\n      tag_37\n      jump\t// in\n    tag_85:\n        /* \"#utility.yul\":3995:4020   */\n      swap2\n      pop\n        /* \"#utility.yul\":4034:4054   */\n      tag_86\n        /* \"#utility.yul\":4052:4053   */\n      dup4\n        /* \"#utility.yul\":4034:4054   */\n      tag_37\n      jump\t// in\n    tag_86:\n        /* \"#utility.yul\":4029:4054   */\n      swap3\n      pop\n        /* \"#utility.yul\":4077:4078   */\n      dup3\n        /* \"#utility.yul\":4074:4075   */\n      dup3\n        /* \"#utility.yul\":4070:4079   */\n      add\n        /* \"#utility.yul\":4063:4079   */\n      swap1\n      pop\n        /* \"#utility.yul\":4098:4101   */\n      dup1\n        /* \"#utility.yul\":4095:4096   */\n      dup3\n        /* \"#utility.yul\":4092:4102   */\n      gt\n        /* \"#utility.yul\":4089:4125   */\n      iszero\n      tag_87\n      jumpi\n        /* \"#utility.yul\":4105:4123   */\n      tag_88\n      tag_44\n      jump\t// in\n    tag_88:\n        /* \"#utility.yul\":4089:4125   */\n    tag_87:\n        /* \"#utility.yul\":3941:4132   */\n      swap3\n      swap2\n      pop\n      pop\n      jump\t// out\n\n    auxdata: 0xa26469706673582212207bba7a805397929731a39da09d9ac63c5860a9cfbd24877a2c248f1d0eec822f64736f6c634300081a0033\n}\n",
				"bytecode": {
					"linkReferences": {},
					"object": "6080604052348015600e575f80fd5b506105798061001c5f395ff3fe608060405260043610610033575f3560e01c80632e1a7d4d14610037578063c71daccb1461005f578063d0e30db014610089575b5f80fd5b348015610042575f80fd5b5061005d60048036038101906100589190610357565b610093565b005b34801561006a575f80fd5b506100736101f9565b6040516100809190610391565b60405180910390f35b61009161023c565b005b805f803373ffffffffffffffffffffffffffffffffffffffff1673ffffffffffffffffffffffffffffffffffffffff1681526020019081526020015f20541015610112576040517f08c379a000000000000000000000000000000000000000000000000000000000815260040161010990610404565b60405180910390fd5b805f803373ffffffffffffffffffffffffffffffffffffffff1673ffffffffffffffffffffffffffffffffffffffff1681526020019081526020015f205f82825461015d919061044f565b925050819055503373ffffffffffffffffffffffffffffffffffffffff166108fc8290811502906040515f60405180830381858888f193505050501580156101a7573d5f803e3d5ffd5b503373ffffffffffffffffffffffffffffffffffffffff167fbc158bb64f05d6383aea69bbb0b20c1bbf4b7a18f63359c5649b7c39e29d3884826040516101ee9190610391565b60405180910390a250565b5f805f3373ffffffffffffffffffffffffffffffffffffffff1673ffffffffffffffffffffffffffffffffffffffff1681526020019081526020015f2054905090565b5f341161027e576040517f08c379a0000000000000000000000000000000000000000000000000000000008152600401610275906104f2565b60405180910390fd5b345f803373ffffffffffffffffffffffffffffffffffffffff1673ffffffffffffffffffffffffffffffffffffffff1681526020019081526020015f205f8282546102c99190610510565b925050819055503373ffffffffffffffffffffffffffffffffffffffff167fd15c9547ea5c06670c0010ce19bc32d54682a4b3801ece7f3ab0c3f17106b4bb346040516103169190610391565b60405180910390a2565b5f80fd5b5f819050919050565b61033681610324565b8114610340575f80fd5b50565b5f813590506103518161032d565b92915050565b5f6020828403121561036c5761036b610320565b5b5f61037984828501610343565b91505092915050565b61038b81610324565b82525050565b5f6020820190506103a45f830184610382565b92915050565b5f82825260208201905092915050565b7f496e73756666696369656e742062616c616e63650000000000000000000000005f82015250565b5f6103ee6014836103aa565b91506103f9826103ba565b602082019050919050565b5f6020820190508181035f83015261041b816103e2565b9050919050565b7f4e487b71000000000000000000000000000000000000000000000000000000005f52601160045260245ffd5b5f61045982610324565b915061046483610324565b925082820390508181111561047c5761047b610422565b5b92915050565b7f4465706f73697420616d6f756e74206d757374206265206772656174657220745f8201527f68616e207a65726f000000000000000000000000000000000000000000000000602082015250565b5f6104dc6028836103aa565b91506104e782610482565b604082019050919050565b5f6020820190508181035f830152610509816104d0565b9050919050565b5f61051a82610324565b915061052583610324565b925082820190508082111561053d5761053c610422565b5b9291505056fea26469706673582212207bba7a805397929731a39da09d9ac63c5860a9cfbd24877a2c248f1d0eec822f64736f6c634300081a0033",
					"opcodes": "PUSH1 0x80 PUSH1 0x40 MSTORE CALLVALUE DUP1 ISZERO PUSH1 0xE JUMPI PUSH0 DUP1 REVERT JUMPDEST POP PUSH2 0x579 DUP1 PUSH2 0x1C PUSH0 CODECOPY PUSH0 RETURN INVALID PUSH1 0x80 PUSH1 0x40 MSTORE PUSH1 0x4 CALLDATASIZE LT PUSH2 0x33 JUMPI PUSH0 CALLDATALOAD PUSH1 0xE0 SHR DUP1 PUSH4 0x2E1A7D4D EQ PUSH2 0x37 JUMPI DUP1 PUSH4 0xC71DACCB EQ PUSH2 0x5F JUMPI DUP1 PUSH4 0xD0E30DB0 EQ PUSH2 0x89 JUMPI JUMPDEST PUSH0 DUP1 REVERT JUMPDEST CALLVALUE DUP1 ISZERO PUSH2 0x42 JUMPI PUSH0 DUP1 REVERT JUMPDEST POP PUSH2 0x5D PUSH1 0x4 DUP1 CALLDATASIZE SUB DUP2 ADD SWAP1 PUSH2 0x58 SWAP2 SWAP1 PUSH2 0x357 JUMP JUMPDEST PUSH2 0x93 JUMP JUMPDEST STOP JUMPDEST CALLVALUE DUP1 ISZERO PUSH2 0x6A JUMPI PUSH0 DUP1 REVERT JUMPDEST POP PUSH2 0x73 PUSH2 0x1F9 JUMP JUMPDEST PUSH1 0x40 MLOAD PUSH2 0x80 SWAP2 SWAP1 PUSH2 0x391 JUMP JUMPDEST PUSH1 0x40 MLOAD DUP1 SWAP2 SUB SWAP1 RETURN JUMPDEST PUSH2 0x91 PUSH2 0x23C JUMP JUMPDEST STOP JUMPDEST DUP1 PUSH0 DUP1 CALLER PUSH20 0xFFFFFFFFFFFFFFFFFFFFFFFFFFFFFFFFFFFFFFFF AND PUSH20 0xFFFFFFFFFFFFFFFFFFFFFFFFFFFFFFFFFFFFFFFF AND DUP2 MSTORE PUSH1 0x20 ADD SWAP1 DUP2 MSTORE PUSH1 0x20 ADD PUSH0 KECCAK256 SLOAD LT ISZERO PUSH2 0x112 JUMPI PUSH1 0x40 MLOAD PUSH32 0x8C379A000000000000000000000000000000000000000000000000000000000 DUP2 MSTORE PUSH1 0x4 ADD PUSH2 0x109 SWAP1 PUSH2 0x404 JUMP JUMPDEST PUSH1 0x40 MLOAD DUP1 SWAP2 SUB SWAP1 REVERT JUMPDEST DUP1 PUSH0 DUP1 CALLER PUSH20 0xFFFFFFFFFFFFFFFFFFFFFFFFFFFFFFFFFFFFFFFF AND PUSH20 0xFFFFFFFFFFFFFFFFFFFFFFFFFFFFFFFFFFFFFFFF AND DUP2 MSTORE PUSH1 0x20 ADD SWAP1 DUP2 MSTORE PUSH1 0x20 ADD PUSH0 KECCAK256 PUSH0 DUP3 DUP3 SLOAD PUSH2 0x15D SWAP2 SWAP1 PUSH2 0x44F JUMP JUMPDEST SWAP3 POP POP DUP2 SWAP1 SSTORE POP CALLER PUSH20 0xFFFFFFFFFFFFFFFFFFFFFFFFFFFFFFFFFFFFFFFF AND PUSH2 0x8FC DUP3 SWAP1 DUP2 ISZERO MUL SWAP1 PUSH1 0x40 MLOAD PUSH0 PUSH1 0x40 MLOAD DUP1 DUP4 SUB DUP2 DUP6 DUP9 DUP9 CALL SWAP4 POP POP POP POP ISZERO DUP1 ISZERO PUSH2 0x1A7 JUMPI RETURNDATASIZE PUSH0 DUP1 RETURNDATACOPY RETURNDATASIZE PUSH0 REVERT JUMPDEST POP CALLER PUSH20 0xFFFFFFFFFFFFFFFFFFFFFFFFFFFFFFFFFFFFFFFF AND PUSH32 0xBC158BB64F05D6383AEA69BBB0B20C1BBF4B7A18F63359C5649B7C39E29D3884 DUP3 PUSH1 0x40 MLOAD PUSH2 0x1EE SWAP2 SWAP1 PUSH2 0x391 JUMP JUMPDEST PUSH1 0x40 MLOAD DUP1 SWAP2 SUB SWAP1 LOG2 POP JUMP JUMPDEST PUSH0 DUP1 PUSH0 CALLER PUSH20 0xFFFFFFFFFFFFFFFFFFFFFFFFFFFFFFFFFFFFFFFF AND PUSH20 0xFFFFFFFFFFFFFFFFFFFFFFFFFFFFFFFFFFFFFFFF AND DUP2 MSTORE PUSH1 0x20 ADD SWAP1 DUP2 MSTORE PUSH1 0x20 ADD PUSH0 KECCAK256 SLOAD SWAP1 POP SWAP1 JUMP JUMPDEST PUSH0 CALLVALUE GT PUSH2 0x27E JUMPI PUSH1 0x40 MLOAD PUSH32 0x8C379A000000000000000000000000000000000000000000000000000000000 DUP2 MSTORE PUSH1 0x4 ADD PUSH2 0x275 SWAP1 PUSH2 0x4F2 JUMP JUMPDEST PUSH1 0x40 MLOAD DUP1 SWAP2 SUB SWAP1 REVERT JUMPDEST CALLVALUE PUSH0 DUP1 CALLER PUSH20 0xFFFFFFFFFFFFFFFFFFFFFFFFFFFFFFFFFFFFFFFF AND PUSH20 0xFFFFFFFFFFFFFFFFFFFFFFFFFFFFFFFFFFFFFFFF AND DUP2 MSTORE PUSH1 0x20 ADD SWAP1 DUP2 MSTORE PUSH1 0x20 ADD PUSH0 KECCAK256 PUSH0 DUP3 DUP3 SLOAD PUSH2 0x2C9 SWAP2 SWAP1 PUSH2 0x510 JUMP JUMPDEST SWAP3 POP POP DUP2 SWAP1 SSTORE POP CALLER PUSH20 0xFFFFFFFFFFFFFFFFFFFFFFFFFFFFFFFFFFFFFFFF AND PUSH32 0xD15C9547EA5C06670C0010CE19BC32D54682A4B3801ECE7F3AB0C3F17106B4BB CALLVALUE PUSH1 0x40 MLOAD PUSH2 0x316 SWAP2 SWAP1 PUSH2 0x391 JUMP JUMPDEST PUSH1 0x40 MLOAD DUP1 SWAP2 SUB SWAP1 LOG2 JUMP JUMPDEST PUSH0 DUP1 REVERT JUMPDEST PUSH0 DUP2 SWAP1 POP SWAP2 SWAP1 POP JUMP JUMPDEST PUSH2 0x336 DUP2 PUSH2 0x324 JUMP JUMPDEST DUP2 EQ PUSH2 0x340 JUMPI PUSH0 DUP1 REVERT JUMPDEST POP JUMP JUMPDEST PUSH0 DUP2 CALLDATALOAD SWAP1 POP PUSH2 0x351 DUP2 PUSH2 0x32D JUMP JUMPDEST SWAP3 SWAP2 POP POP JUMP JUMPDEST PUSH0 PUSH1 0x20 DUP3 DUP5 SUB SLT ISZERO PUSH2 0x36C JUMPI PUSH2 0x36B PUSH2 0x320 JUMP JUMPDEST JUMPDEST PUSH0 PUSH2 0x379 DUP5 DUP3 DUP6 ADD PUSH2 0x343 JUMP JUMPDEST SWAP2 POP POP SWAP3 SWAP2 POP POP JUMP JUMPDEST PUSH2 0x38B DUP2 PUSH2 0x324 JUMP JUMPDEST DUP3 MSTORE POP POP JUMP JUMPDEST PUSH0 PUSH1 0x20 DUP3 ADD SWAP1 POP PUSH2 0x3A4 PUSH0 DUP4 ADD DUP5 PUSH2 0x382 JUMP JUMPDEST SWAP3 SWAP2 POP POP JUMP JUMPDEST PUSH0 DUP3 DUP3 MSTORE PUSH1 0x20 DUP3 ADD SWAP1 POP SWAP3 SWAP2 POP POP JUMP JUMPDEST PUSH32 0x496E73756666696369656E742062616C616E6365000000000000000000000000 PUSH0 DUP3 ADD MSTORE POP JUMP JUMPDEST PUSH0 PUSH2 0x3EE PUSH1 0x14 DUP4 PUSH2 0x3AA JUMP JUMPDEST SWAP2 POP PUSH2 0x3F9 DUP3 PUSH2 0x3BA JUMP JUMPDEST PUSH1 0x20 DUP3 ADD SWAP1 POP SWAP2 SWAP1 POP JUMP JUMPDEST PUSH0 PUSH1 0x20 DUP3 ADD SWAP1 POP DUP2 DUP2 SUB PUSH0 DUP4 ADD MSTORE PUSH2 0x41B DUP2 PUSH2 0x3E2 JUMP JUMPDEST SWAP1 POP SWAP2 SWAP1 POP JUMP JUMPDEST PUSH32 0x4E487B7100000000000000000000000000000000000000000000000000000000 PUSH0 MSTORE PUSH1 0x11 PUSH1 0x4 MSTORE PUSH1 0x24 PUSH0 REVERT JUMPDEST PUSH0 PUSH2 0x459 DUP3 PUSH2 0x324 JUMP JUMPDEST SWAP2 POP PUSH2 0x464 DUP4 PUSH2 0x324 JUMP JUMPDEST SWAP3 POP DUP3 DUP3 SUB SWAP1 POP DUP2 DUP2 GT ISZERO PUSH2 0x47C JUMPI PUSH2 0x47B PUSH2 0x422 JUMP JUMPDEST JUMPDEST SWAP3 SWAP2 POP POP JUMP JUMPDEST PUSH32 0x4465706F73697420616D6F756E74206D75737420626520677265617465722074 PUSH0 DUP3 ADD MSTORE PUSH32 0x68616E207A65726F000000000000000000000000000000000000000000000000 PUSH1 0x20 DUP3 ADD MSTORE POP JUMP JUMPDEST PUSH0 PUSH2 0x4DC PUSH1 0x28 DUP4 PUSH2 0x3AA JUMP JUMPDEST SWAP2 POP PUSH2 0x4E7 DUP3 PUSH2 0x482 JUMP JUMPDEST PUSH1 0x40 DUP3 ADD SWAP1 POP SWAP2 SWAP1 POP JUMP JUMPDEST PUSH0 PUSH1 0x20 DUP3 ADD SWAP1 POP DUP2 DUP2 SUB PUSH0 DUP4 ADD MSTORE PUSH2 0x509 DUP2 PUSH2 0x4D0 JUMP JUMPDEST SWAP1 POP SWAP2 SWAP1 POP JUMP JUMPDEST PUSH0 PUSH2 0x51A DUP3 PUSH2 0x324 JUMP JUMPDEST SWAP2 POP PUSH2 0x525 DUP4 PUSH2 0x324 JUMP JUMPDEST SWAP3 POP DUP3 DUP3 ADD SWAP1 POP DUP1 DUP3 GT ISZERO PUSH2 0x53D JUMPI PUSH2 0x53C PUSH2 0x422 JUMP JUMPDEST JUMPDEST SWAP3 SWAP2 POP POP JUMP INVALID LOG2 PUSH5 0x6970667358 0x22 SLT KECCAK256 PUSH28 0xBA7A805397929731A39DA09D9AC63C5860A9CFBD24877A2C248F1D0E 0xEC DUP3 0x2F PUSH5 0x736F6C6343 STOP ADDMOD BYTE STOP CALLER "
				},
				"gasEstimates": {
					"creation": {
						"codeDepositCost": "280200",
						"executionCost": "316",
						"totalCost": "280516"
					},
					"external": {
						"checkBalance()": "2519",
						"deposit()": "infinite",
						"withdraw(uint256)": "infinite"
					}
				},
				"methodIdentifiers": {
					"checkBalance()": "c71daccb",
					"deposit()": "d0e30db0",
					"withdraw(uint256)": "2e1a7d4d"
				}
			},
			"storageLayout": {
				"storage": [
					{
						"astId": 5,
						"contract": "smartcontract.sol:SimpleBank",
						"label": "balances",
						"offset": 0,
						"slot": "0",
						"type": "t_mapping(t_address,t_uint256)"
					}
				],
				"types": {
					"t_address": {
						"encoding": "inplace",
						"label": "address",
						"numberOfBytes": "20"
					},
					"t_mapping(t_address,t_uint256)": {
						"encoding": "mapping",
						"key": "t_address",
						"label": "mapping(address => uint256)",
						"numberOfBytes": "32",
						"value": "t_uint256"
					},
					"t_uint256": {
						"encoding": "inplace",
						"label": "uint256",
						"numberOfBytes": "32"
					}
				}
			},
			"userdoc": {
				"kind": "user",
				"methods": {},
				"version": 1
			}
		}
	}
}